:10107900312F722F6E00322F722F6E00332F722F85
:101089006E00C7EBCBB5B3F6D2BBBCB6BFDAC1EEC7
:031099000D0A003D
:0610F600011C00011B00BB
:100E7B00E4F5097592FFF591C294C295C296C2979B
:100E8B0012109C1210B8120F64121009802C781CCF
:100E9B00E61460FA24F1601824DF60F2243170202C
:100EAB00781C7601120ED1EF70E4781C763180DE5F
:100EBB00121117781EEFF612093BE4781CF680CE60
:060ECB00E4781CF680C86B
:10109C00B2C21210DEB2C21210DEB2C21210DEB236
:0C10AC00C21210DEB2C21210DEB2C2226C
:1010B8007580FFE4F59075A0FF75B0FF75C0FFC29D
:0810C800C3D289D2A8D2AF22E5
:0A10EB0000007F057E49DEFEDFFCF9
:0110F50022D8
:081055008F148E138D128C1113
:10105D00E4F515F516F517F518781174FF12082932
:0B106D00EC4D4E4F60051210EB80EEC2
:011078002255
:0C10DE007F117ED07D1BDDFEDEFCDFFA02
:0110EA0022E3
:03000300020FA544
:100FA500C0E0C0F0C083C082C0D075D000C000C012
:100FB50001C002C003C004C005C006C007120C680A
:100FC500D007D006D005D004D003D002D001D00080
:0B0FD500D0D0D082D083D0F0D0E0322A
:10093B008F0AE50A7014751B017F011210D07BFF23
:10094B007A107979121030C2C222E51B6401600360
:10095B00020A3FF51BD2C2E50A12084709890109B1
:10096B009A0209AB0409BC0509CD1609DE1709EF7C
:10097B00180A00190A111A0A281B00000A487F02DC
:10098B001210D07BFF7A10797F121030D297227F12
:10099B00021210D07BFF7A10797F121030C297228F
:1009AB007F021210D07BFF7A10797F121030D29613
:1009BB00227F021210D07BFF7A10797F121030C287
:1009CB0096227F021210D07BFF7A10797F121030A3
:1009DB00D295227F021210D07BFF7A10797F1210F2
:1009EB0030C295227F031210D07BFF7A10798512CB
:1009FB001030D294227F031210D07BFF7A107985AE
:100A0B00121030C294227F031210D07BFF7A107920
:100A1B0085121030D297D296D295D294227F0312A0
:100A2B0010D07BFF7A107985121030C297C296C214
:0E0A3B0095C294227BFF7A10798B1210302224
:100A49006C61206A6920746F6E6700000000000005
:100A590000000000666569207A68690000000000EE
:100A690000000000000000007375206C69616F00D0
:100A7900000000000000000000000000626F206C10
:100A890069000000000000000000000000000000F4
:100A99007969206C61206775616E000000000000B3
:100AA9000000000062616F207A68690000000000A0
:100AB900000000000000000079692077750000003F
:100AC90000000000000000000000000077656920B8
:100AD9007368656E67207A6869000000000000008D
:100AE90067756F206B6500000000000000000000C2
:100AF900000000006C756F2079650000000000009F
:100B090000000000000000006368656E2074750035
:100B190000000000000000000000000000010204C5
:070B290005161718191A1B2D
:100F6400D2B57F057E007D007C00121055C2B57F8E
:100F7400057E007D007C00121055D2B57F057E00F1
:100F84007D007C00121055C2A17F057E007D007C8F
:100F940000121055D2A17F057E007D007C00021056
:010FA40055F7
:100B30007F0612110C7D357F171211017F0A7E008E
:100B40007D007C001210557F0612110C7D037F89F9
:100B50001211017F057E007D007C001210557D433F
:100B60007FCF1211017F057E007D007C00121055A1
:100B70007D027FCB1211017D0A7F11121101E4FD6C
:100B80007F1E1211017D3F7F191211017D487F1BCD
:100B90001211017D1F7F1D1211017F0A7E007D0051
:100BA0007C001210557D047FCD1211017F057E005F
:100BB0007D007C00121055E4FD7FB91211017D4FBC
:0C0BC0007FCF1211017DFF7F6F02110139
:100E1C00120B30E4FD7FBD1211017D487F171211BA
:100E2C00017F0A7E007D007C001210557D807F3C86
:100E3C001211017D077F3E1211017DFF7F381211C7
:100E4C00017D077F3A121101E4FD7F401211017DF3
:100E5C00087F42121101E4FD7F441211017D087FCD
:0F0E6C00461211017F017E007D007C00021055AF
:100C6800E4F508C2A87F2B12110C781DA607E4FD35
:100C78007F29121101E4FD7F02121101781DE6306F
:100C8800E42D7FB212110CEF642170237FBF121183
:100C98000CBF351B7FBA12110C8F08E508D39400DE
:100CA800400DE508D394045006781C76108004782B
:100CB8001C7611E4FD7F2B121101E4FD7F1C12113B
:100CC80001E4FD7F29121101E4FD7F02121101E404
:100CD800FD7F2B121101E4FD7FBA121101E4FD7FA3
:100CE800BC1211017D017F08121101E4FD7F081279
:040CF8001101D2A86C
:010CFC0022D5
:100ED100E4F50AF50BF50A12111D7F327E007D0043
:100EE1007C00121055120BCCEF700280117F0A7E2C
:100EF100007D007C00121055120CFDEF7010120FD6
:100F0100647F327E007D007C001210558005750BD8
:0E0F1100018009050AE50AC3940540BBAF0B39
:010F1F0022AF
:100FE000E4F510F50F7FB212110CBF210575100149
:100FF00080147F0A7E007D007C00121055050FE5ED
:081000000FC3940A40DFAF109A
:0110080022C5
:03111D00020E1CA3
:100CFD00C2A87D557F351211017D097F1C1211018E
:100D0D007D207FBD1211017D017F081211017F0130
:100D1D007E007D007C00121055E4FD7F081211014C
:100D2D007F017E007D007C00121055120FE0EF70E8
:100D3D0002FF227D0B7F1C1211017DFF7FB212116C
:100D4D00017F017E007D007C001210557D067F37EE
:100D5D001211017F017E007D007C001210557D0671
:100D6D007F371211017F057E007D007C001210552A
:100D7D007D107F29121101E4FD7FBD121101D2A852
:030D8D007F0122C1
:100BCC00750D01E4F50C120FE0EF7005F50D020C3C
:100BDC0065E50C900B2593FD7FC1121101E4FD7F9F
:100BEC00C31211017D047F081211017F017E007D6B
:100BFC00007C00121055E4FD7F081211017F017E6C
:100C0C00007D007C00121055E4F50EE50C75F01417
:100C1C00A42449F582E4340AF583E582250EF58295
:100C2C00E43583F583E493FD600E7F051211010515
:100C3C000EE50EC3941440D3AD0E7FB91211017D95
:100C4C00FF7FB21211017D047F37121101050CE5F3
:0B0C5C000CC3940B5003020BD2AF0D31
:010C6700226A
:061117007FC512110C223D
:0B110100908100EFF0908000EDF022E4
:0B110C00908100EFF0908000E0FF22D7
:0410FC000219258030
:10100900759850758920AE19AF1AAB07AA06E4F98D
:10101900F8FF7EE1FDFC120F201208198F8B8F8DCE
:07102900D28ED2ACD2AF223F
:0E10D000C2ACC2998F993099FDC299D2AC2260
:101030008B0B8A0C890DAB0BAA0CA90D1208006052
:1010400013050DE50D7002050C14F9120800FF12CE
:0510500010D080E22237
:03000000020D905E
:0C0D9000787FE4F6D8FD75811E020DD7B7
:10080000BB010689828A83E0225002E722BBFE02F6
:09081000E32289828A83E4932229
:100F2000C2D5E830E70FB2D5E4C39BFBE49AFAE4FC
:100F300099F9E498F8EC30E717B2D5120F56120879
:100F4000A9E4C39BFBE49AFAE499F9E498F88003D6
:100F50001208A930D50DE4C39FFFE49EFEE49DFD79
:040F6000E49CFC22EF
:0E081900C3E49FFFE49EFEE49DFDE49CFC22F0
:100827007401FF3395E0FEFDFC080808E6CF2FF6BC
:1008370018E6CE3EF618E6CD3DF618E6CC3CF62295
:10084700D083D082F8E4937012740193700DA3A340
:1008570093F8740193F5828883E473740293686054
:06086700EFA3A3A380DF54
:100D9C00020E7BE493A3F8E493A34003F68001F2E4
:100DAC0008DFF48029E493A3F85407240CC8C33358
:100DBC00C4540F4420C8834004F456800146F6DF27
:100DCC00E4800B01020408102040809010F6E47EB1
:100DDC00019360BCA3FF543F30E509541FFEE4931C
:100DEC00A360010ECF54C025E060A840B8E493A3E3
:100DFC00FAE493A3F8E493A3C8C582C8CAC583CA0E
:100E0C00F0A3C8C582C8CAC583CADFE9DEE780BEC5
:0111000000EE
:10086D0075F008758200EF2FFFEE33FECD33CDCC42
:10087D0033CCC58233C5829BED9AEC99E5829840C5
:10088D000CF582EE9BFEED9AFDEC99FC0FD5F0D6A2
:10089D00E4CEFBE4CDFAE4CCF9A88222B800C1B9CC
:1008AD000059BA002DEC8BF084CFCECDFCE5F0CB0A
:1008BD00F97818EF2FFFEE33FEED33FDEC33FCEB43
:1008CD0033FB10D703994004EB99FB0FD8E5E4F9FE
:1008DD00FA227818EF2FFFEE33FEED33FDEC33FCEB
:1008ED00C933C910D7059BE99A4007EC9BFCE99ADF
:1008FD00F90FD8E0E4C9FAE4CCFB2275F010EF2F24
:10090D00FFEE33FEED33FDCC33CCC833C810D70723
:10091D009BEC9AE899400AED9BFDEC9AFCE899F85E
:0E092D000FD5F0DAE4CDFBE4CCFAE4C8F922F1
:00000001FF
