:1005FC00D2BBBCB6BFDAC1EEA3BAD0A1D3A50D0A4B
:10060C0000B6FEBCB6BFDAC1EEA3BA31A1A2D6D0F9
:10061C00B9FA0D0A000932A1A2B9FEB6FBB1F50D6B
:10062C000A000933A1A2C8ABC7F2D3A5B5E7D7D34B
:10063C000D0A000934A1A2BBB6D3ADC4E30D0A0068
:10064C00202035A1A2BFAAB5C60D0A000936A1A269
:10065C00B9D8B5C60D0A000937A1A2CDEDB0B20DBF
:10066C000A00C7EBD6D8D0C2CAB6B1F0B7A2BFDA6F
:10067C00C1EE0D0A00C7EBCBB5B3F6D2BBBCB6BF0F
:06068C00DAC1EE0D0A00C8
:060AA900011C00011B000E
:10069200E4F509120A71120A5912093C1209E9E435
:1006A200781CF67BFF7A0579FC120A107BFF7A062A
:1006B200790D120A107BFF7A067921120A107BFF4C
:1006C2007A06792E120A107BFF7A06793F120A10F7
:1006D2007BFF7A06794C120A107BFF7A0679581250
:1006E2000A107BFF7A067963120A10781CE61460FE
:1006F200FA24F1601824DF60F224317020781C762D
:10070200011208A3EF70E4781C763180DE120ACA67
:10071200781EEFF6120419E4781CF680CEE4781CF9
:03072200F680C896
:100A7100B2C2120A91B2C2120A91B2C2120A91B260
:020A8100C2228F
:100A59007580FF7590FF75A0FF75B0FF75C0FFC267
:080A6900C3D289D2A8D2AF224A
:0A0A9E0000007F057E49DEFEDFFC4C
:010AA800222B
:080A35008F148E138D128C1139
:100A3D00E4F515F516F517F518781174FF12025D2A
:0B0A4D00EC4D4E4F6005120A9E80EE3B
:010A5800227B
:0C0A91007F117ED07D1BDDFEDEFCDFFA55
:010A9D002236
:0300030002097D72
:10097D00C0E0C0F0C083C082C0D075D000C000C040
:10098D0001C002C003C004C005C006C0071204C1E7
:10099D00D007D006D005D004D003D002D001D000AE
:0B09AD00D0D0D082D083D0F0D0E03258
:100419008F0AEF700A751B01C2C27F010204ACE5A5
:100429001B640160030204B7F51BD2C2E50A12027C
:100439007B046E01047202047603047A04047E05C7
:10044900048206048607048A08048E0904921004AB
:100459009611049A12049E1304A21404A61504AA60
:1004690016000004AF7F02803A7F0280367F028047
:10047900327F02802E7F03802A7F0380267F0380BC
:10048900227F03801E7F04801A7F0480167F0480E8
:10049900127F04800E7F05800A7F0580067F058014
:1004A900027F05020A837BFF7A06796E80067BFF4D
:0804B9007A067981120A102273
:100006006C61206A6920746F6E6700000000000052
:100016000000000000000000000000000000626117
:100026006F207A68690000000000000000000000F0
:100036000000000000000000000000007375206C46
:1000460069616F2070696E670000000000000000A3
:1000560000000000000000000000626F206C6900D4
:10006600000000000000000000000000000000008A
:1000760000000000000000007969206C61206775AF
:10008600616E00000000000000000000000000009B
:1000960000000000000067756F2070690000000016
:1000A600000000000000000000000000000000004A
:1000B600000000006361692079650000000000000F
:1000C600000000000000000000000000000000002A
:1000D60000007368656E672066616E0000000000B0
:1000E600000000000000000000000000000000000A
:1000F600677520746F7500000000000000000000A6
:10010600000000000000000000000000000064691C
:10011600616E2063686900000000000000000000B6
:10012600000000000000000000000000796F75204C
:1001360071690000000000000000000000000000DF
:100146000000000000000000000064656E67206784
:1001560075616E0000000000000000000000000055
:10016600000000000000000079616F2070696E00D9
:100176000000000000000000000000000000000079
:1001860000000000000079616E20746F75000000A9
:100196000000000000000000000000000000000059
:1001A600000000007961207169616E0000000000A6
:1001B6000000000000000000000000000000000039
:1001C60000006D616F206A696E000000000000008B
:1001D6000000000000000000000000000000000019
:1001E600626569206B6500000000000000000000E9
:1001F60000000000000000000000000000000000F9
:1002060000000000000000000000000000000000E8
:1002160000000000000000000000000000010203D2
:0E02260004050607080910111213141516001E
:10093C00D2B57F057E007D007C00120A35C2B57FE2
:10094C00057E007D007C00120A35D2B57F057E0045
:10095C007D007C00120A35C2A17F057E007D007CE3
:10096C0000120A35D2A17F057E007D007C00020AB0
:01097C003545
:100560007F06120ABF7D357F17120AB47F0A7E000C
:100570007D007C00120A357F06120ABF7D037F8949
:10058000120AB47F057E007D007C00120A357D438F
:100590007FCF120AB47F057E007D007C00120A35F1
:1005A0007D027FCB120AB47D0A7F11120AB4E4FDEA
:1005B0007F1E120AB47D3F7F19120AB47D487F1B4B
:1005C000120AB47D1F7F1D120AB47F0A7E007D00CF
:1005D0007C00120A357D047FCD120AB47F057E00AF
:1005E0007D007C00120A35E4FD7FB9120AB47D4F0C
:0C05F0007FCF120AB47DFF7F6F020AB4B7
:10084400120560E4FD7FBD120AB47D487F17120AC9
:10085400B47F0A7E007D007C00120A357D807F3CD7
:10086400120AB47D077F3E120AB47DFF7F38120A54
:10087400B47D077F3A120AB4E4FD7F40120AB47DC6
:10088400087F42120AB4E4FD7F44120AB47D087F53
:0F08940046120AB47F017E007D007C00020A3507
:1004C100E4F508C2A87F2B120ABF781DA607E4FD38
:1004D1007F29120AB4E4FD7F02120AB4781DE630C6
:1004E100E4377FB2120ABFEF6421702D7FBF120A79
:1004F100BFEF643570237FBA120ABF8F087E00D325
:10050100EF9400748094804010D3EF94047480942D
:10051100805006781C76108004781C7611E4FD7FEB
:100521002B120AB4E4FD7F1C120AB4E4FD7F2912E8
:100531000AB4E4FD7F02120AB4E4FD7F2B120AB46F
:10054100E4FD7FBA120AB4E4FD7FBC120AB47D0156
:0E0551007F08120AB4E4FD7F08120AB4D2A893
:01055F002279
:1008A300E4F50AF50BF50AC3E50A94057480948010
:1008B3005040120ACF7F327E007D007C00120A3541
:1008C30012036FEF700280117F0A7E007D007C00AF
:1008D300120A35120725EF701012093C7F327E0091
:1008E3007D007C00120A358005750B018004050A22
:0408F30080B5AF0B12
:0108F70022DE
:1009B800E4F510F50FC3E50F940A74809480501E77
:1009C8007FB2120ABFEF64217005751001800F7F96
:1009D8000A7E007D007C00120A35050F80D7AF1013
:0109E80022EC
:030ACF00020844D6
:10072500C2A87D557F35120AB47D097F1C120AB413
:100735007D207FBD120AB47D017F08120AB47F01B6
:100745007E007D007C00120A35E4FD7F08120AB4A4
:100755007F017E007D007C00120A351209B8EF701A
:1007650002FF227D0B7F1C120AB47DFF7FB2120AA5
:10077500B47F017E007D007C00120A357D067F373F
:10078500120AB47F017E007D007C00120A357D06C9
:100795007F37120AB47F057E007D007C00120A3582
:1007A5007D107F29120AB4E4FD7FBD120AB4D2A8D8
:0307B5007F01229F
:10036F00750D01E4F50CC3E50C9412748094804074
:10037F00030204161209B8EF7005F50D020416E515
:10038F000C90022293FD7FC1120AB4E4FD7FC312C9
:10039F000AB47D047F08120AB47F017E007D007CC1
:1003AF0000120A35E4FD7F08120AB47F017E007D3A
:1003BF00007C00120A35E4F50EC3E50E941E74801E
:1003CF009480502975F01EE50CA42406F582E5F003
:1003DF003400F583E582250EF582E43583F583E459
:1003EF0093FD60097F05120AB4050E80CCAD0E7F18
:1003FF00B9120AB47DFF7FB2120AB47D047F37129F
:09040F000AB4050C020375AF0DDF
:0104180022C1
:050ACA007FC5020ABF18
:0B0AB400908100EFF0908000EDF02238
:0B0ABF00908100EFF0908000E0FF222B
:040AAF000219258083
:1009E900759850758920AE19AF1AAB07AA06E4F9B4
:1009F900F8FF7EE1FDFC1208F812024D8F8B8F8DF6
:070A0900D28ED2ACD2AF2265
:0E0A8300C2ACC2998F993099FDC299D2AC22B3
:100A10008B0B8A0C890DAB0BAA0CA90D120234604A
:100A200013050DE50D7002050C14F9120234FF12C6
:050A30000A8380E222B0
:030000000207B83C
:0C07B800787FE4F6D8FD75811E0207FF73
:10023400BB010689828A83E0225002E722BBFE02C8
:09024400E32289828A83E49322FB
:1008F800C2D5E830E70FB2D5E4C39BFBE49AFAE42B
:1009080099F9E498F8EC30E717B2D512092E1202DB
:10091800DDE4C39BFBE49AFAE499F9E498F88003D0
:100928001202DD30D50DE4C39FFFE49EFEE49DFD79
:04093800E49CFC221D
:0E024D00C3E49FFFE49EFEE49DFDE49CFC22C2
:10025B007401FF3395E0FEFDFC080808E6CF2FF68E
:10026B0018E6CE3EF618E6CD3DF618E6CC3CF62267
:10027B00D083D082F8E4937012740193700DA3A312
:10028B0093F8740193F5828883E473740293686026
:06029B00EFA3A3A380DF26
:1007C400020692E493A3F8E493A34003F68001F2B3
:1007D40008DFF48029E493A3F85407240CC8C33336
:1007E400C4540F4420C8834004F456800146F6DF05
:1007F400E4800B0102040810204080900AA9E47EE2
:10080400019360BCA3FF543F30E509541FFEE493F9
:10081400A360010ECF54C025E060A840B8E493A3C0
:10082400FAE493A3F8E493A3C8C582C8CAC583CAEB
:10083400F0A3C8C582C8CAC583CADFE9DEE780BEA3
:010AB3000042
:1002A10075F008758200EF2FFFEE33FECD33CDCC14
:1002B10033CCC58233C5829BED9AEC99E582984097
:1002C1000CF582EE9BFEED9AFDEC99FC0FD5F0D674
:1002D100E4CEFBE4CDFAE4CCF9A88222B800C1B99E
:1002E1000059BA002DEC8BF084CFCECDFCE5F0CBDC
:1002F100F97818EF2FFFEE33FEED33FDEC33FCEB15
:1003010033FB10D703994004EB99FB0FD8E5E4F9CF
:10031100FA227818EF2FFFEE33FEED33FDEC33FCBC
:10032100C933C910D7059BE99A4007EC9BFCE99AB0
:10033100F90FD8E0E4C9FAE4CCFB2275F010EF2FF5
:10034100FFEE33FEED33FDCC33CCC833C810D707F5
:100351009BEC9AE899400AED9BFDEC9AFCE899F830
:0E0361000FD5F0DAE4CDFBE4CCFAE4C8F922C3
:00000001FF
